:020000040000FA
:0400000084EF09F090
:100F0000000040010000000E186E000E196E000E69
:100F10001A6E000E1B6E000E146E000E136E000E85
:100F2000166E000E156E8982080EE82EFED780A080
:100F30009CEF07F09EEF07F0A6EF07F0D890183669
:100F400019361A361B361880ABEF07F0D8901836D2
:100F500019361A361B368992040EE82EFED7154A2A
:100F6000162A16BEBDEF07F0165009E1080E155CF3
:100F7000D8A0BDEF07F0BFEF07F093EF07F0134ADB
:100F8000142A14BECDEF07F0145009E1030E135CD0
:100F9000D8A0CDEF07F0CFEF07F08FEF07F08982F1
:100FA000080EE82EFED7899218C001F019C002F091
:100FB0001AC003F01BC004F00EC005F00FC006F00D
:100FC00010C007F011C008F07AEC08F00150176E5D
:100FD000030E126E980EE82EFED7122EFCD71B5071
:100FE0000DE1A50E185C960E1958070E1A58D8A0D8
:100FF000FCEF07F0FEEF07F009EF08F0FE0E1760B8
:1010000004EF08F006EF08F009EF08F0FF0E0AEF12
:1010100008F017501200000E1F6E000E1E6E8BECB3
:1010200009F0150E1D6E4B0E1C6EBE0EE82EFED77F
:101030001C2EFCD71D2EFAD700D0D00E0E6E070E38
:101040000F6E000E106E000E116E83EC07F0206E16
:1010500020C01FF0150E1D6E4B0E1C6EBE0EE82E2E
:10106000FED71C2EFCD71D2EFAD700D0D00E0E6E48
:10107000070E0F6E000E106E000E116E83EC07F05F
:10108000206E1F50205C016E026AD8A0020638EC68
:1010900009F001501E6E640E1E6051EF08F053EF10
:1010A00008F061EF08F01F50205CD8A05AEF08F05C
:1010B0005CEF08F061EF08F0205016EC09F020C05A
:1010C0001FF020501F5CD8A068EF08F06AEF08F00E
:1010D0006FEF08F0205016EC09F020C01FF0820ED0
:1010E0001C6EDE0EE82EFED71C2EFCD736EF08F065
:1010F00000EF00F0000E096E000E0A6E000E0B6E7F
:10110000000E0C6E0550061007100810D8B48BEFB7
:1011100008F08DEF08F0C3EF08F0010E0D6E97EFA9
:1011200008F0D89005360636073608360D2A08AE80
:101130009CEF08F09EEF08F091EF08F0D890093688
:101140000A360B360C360550015C06500258075023
:10115000035808500458D8A0B0EF08F0B2EF08F0D8
:10116000BBEF08F00550015E0650025A0750035AC3
:101170000850045A0980D8900832073206320532E6
:101180000D2E9EEF08F009C001F00AC002F00BC05E
:1011900003F00CC004F01200026EC6BAD2EF08F0E1
:1011A000D4EF08F015EF09F00250040D010EF326FC
:1011B000000EF422010EF324F66E0F0EF420F76EEB
:1011C0000800F5CFC7FF0250040D010EF324F66EA0
:1011D0000F0EF420F76E0800F5CFC6FF000EC56EA7
:1011E0000250040D020EF326000EF422010EF32429
:1011F000F66E0F0EF420F76E0800F5CFC8FF025010
:10120000040D030EF326000EF422010EF324F66EF5
:101210000F0EF420F76E0800F5CF01F0013A93505D
:101220000118EF0B0118936EC68A1200036E8A90A4
:10123000030EE82EFED700F0000ECCEC08F0000EF6
:1012400092EC09F000D000D0035092EC09F0030EAC
:10125000E82EFED700F096EC09F000D000D000D0C8
:1012600000D08A80C80E00D000D0E82EFCD7120033
:1012700002BE45EF09F0025006E10104D8B043EF89
:1012800009F045EF09F053EF09F001C003F002C087
:1012900004F0031E041E034A042A03C001F004C024
:1012A00002F057EF09F001C001F002C002F0120095
:1012B000000E896E030E8A6E000E8B6EED0E926E1E
:1012C000EC0E936E470E946E030E0F01486F140ED2
:1012D000496FF18E000E426F000E416F000E406F9D
:1012E0001200730ED36E000E9B6E000E0F013D6F49
:1012F000140E876E1200400EC76E000EC66E010EF1
:10130000C86E9398C69A1200000EF86E0F0EF76E14
:1013100000010BEF08F07BEC09F058EC09F071ECE0
:1013200009F01200016E01C0C9FF1200C69A120036
:020000040001F9
:08FFF8009EF731FFF3FBFFFB54
:00000001FF
