:020000040000FA
:040000001DEF09F0F7
:100F0000000040010000000E146E000E156E000E71
:100F1000166E000E176E000E196E000E186E000E83
:100F20001B6E000E1A6E8982080EE82EFED780A076
:100F30009CEF07F09EEF07F0A6EF07F0D89014366D
:100F40001536163617361480ABEF07F0D8901436E6
:100F50001536163617368992040EE82EFED71A4A31
:100F60001B2A1BBEBDEF07F01B5009E1080E1A5CDF
:100F7000D8A0BDEF07F0BFEF07F093EF07F0184AD6
:100F8000192A19BECDEF07F0195009E1030E185CBC
:100F9000D8A0CDEF07F0CFEF07F08FEF07F08982F1
:100FA000080EE82EFED7899214C001F015C002F099
:100FB00016C003F017C004F00EC005F00FC006F015
:100FC00010C007F011C008F0F1EC07F00150136EEB
:100FD000030E126E980EE82EFED7122EFCD7135079
:100FE0001200000E096E000E0A6E000E0B6E000E4F
:100FF0000C6E0550061007100810D8B402EF08F068
:1010000004EF08F03AEF08F0010E0D6E0EEF08F055
:10101000D89005360636073608360D2A08AE13EF87
:1010200008F015EF08F008EF08F0D89009360A36F6
:101030000B360C360550015C065002580750035819
:1010400008500458D8A027EF08F029EF08F032EF35
:1010500008F00550015E0650025A0750035A085026
:10106000045A0980D89008320732063205320D2E14
:1010700015EF08F009C001F00AC002F00BC003F040
:101080000CC004F01200026EC6BA49EF08F04BEF34
:1010900008F08CEF08F00250040D010EF326000E4C
:1010A000F422010EF324F66E0F0EF420F76E080002
:1010B000F5CFC7FF0250040D010EF324F66E0F0E9C
:1010C000F420F76E0800F5CFC6FF000EC56E025083
:1010D000040D020EF326000EF422010EF324F66E28
:1010E0000F0EF420F76E0800F5CFC8FF0250040D74
:1010F000030EF326000EF422010EF324F66E0F0EFB
:10110000F420F76E0800F5CF01F0013A9350011872
:10111000EF0B0118936EC68A1200000E1F6E000EB0
:101120001E6E24EC09F0150E1D6E4B0E1C6EBE0ECD
:10113000E82EFED71C2EFCD71D2EFAD700D0B80EF5
:101140000E6E0B0E0F6E000E106E000E116E83EC05
:1011500007F0206E150E1D6E4B0E1C6EBE0EE82E97
:10116000FED71C2EFCD71D2EFAD700D0B80E0E6E5F
:101170000B0E0F6E000E106E000E116E83EC07F05A
:10118000206E2050CFEC08F0820E1C6EDE0EE82E92
:10119000FED71C2EFCD7B6EF08F000EF00F0036E70
:1011A0008A92030EE82EFED700F0000E43EC08F002
:1011B000000E2BEC09F000D000D003502BEC09F00E
:1011C000030EE82EFED700F02FEC09F000D000D07F
:1011D00000D000D08A82C80E00D000D0E82EFCD704
:1011E0001200000E896E030E8A6E000E8B6EED0EDD
:1011F000926EEC0E936E470E946E030E0F01486FC5
:10120000140E496FF18E000E426F000E416F000EFA
:10121000406F1200730ED36E000E9B6E000E0F0116
:101220003D6F140E876E1200400EC76E000EC66E24
:10123000010EC86E9398C69A1200000EF86E0F0E3B
:10124000F76E00018DEF08F014EC09F0F1EC08F0F6
:101250000AEC09F01200016E01C0C9FF1200C69A23
:0212600012007A
:020000040001F9
:08FFF8009EF731FFF3FBFFFB54
:00000001FF
